:100000000C9462000C9465040C943E040C948A00D9
:100010000C948A000C948A000C948A000C948A0038
:100020000C948A000C948A000C948A000C948A0028
:100030000C948A000C948C040C948A000C948A0012
:100040000C94F4030C948A000C94C2030C949C034B
:100050000C948A000C948A000C948A000C948A00F8
:100060000C948A000C948A000000000024002700F1
:100070002A0000000000250028002B0000000000DE
:1000800023002600290004040404040404040202DA
:100090000202020203030303030301020408102007
:1000A0004080010204081020010204081020000012
:1000B0000008000201000003040700000000000027
:1000C0000000CE0511241FBECFEFD8E0DEBFCDBFAC
:1000D00011E0A0E0B1E0E2E9FCE002C005900D9281
:1000E000AA31B107D9F721E0AAE1B1E001C01D9220
:1000F000AB3DB207E1F710E0C2E6D0E004C02197C3
:10010000FE010E943C06C136D107C9F70E94B30424
:100110000C9447060C940000CF92DF92EF92FF926E
:100120000F931F93CF93DF936C017A018B01C0E093
:10013000D0E0CE15DF0589F0D8016D918D01D60193
:10014000ED91FC910190F081E02DC6010995892B7C
:1001500011F47E0102C02196ECCFC701DF91CF914F
:100160001F910F91FF90EF90DF90CF900895089529
:1001700080E090E00895FC01538D448D252F30E000
:10018000842F90E0821B930B541710F0CF960895A4
:1001900001970895FC01918D828D981761F0828DF1
:1001A000DF01A80FB11D5D968C91928D9F5F9F73AB
:1001B000928F90E008958FEF9FEF0895FC01918D4D
:1001C000828D981731F0828DE80FF11D858D90E0BA
:1001D00008958FEF9FEF0895FC01918D228D892F57
:1001E00090E0805C9F4F821B91098F73992708953F
:1001F0008EE391E00E94EC0021E0892B09F420E0DD
:10020000822F0895FC01848DDF01A80FB11DA35A30
:10021000BF4F2C91848D90E001968F739927848F26
:10022000A689B7892C93A089B1898C9180648C931D
:10023000938D848D981306C00288F389E02D808108
:100240008F7D80830895EF92FF920F931F93CF933A
:10025000DF93EC0181E0888F9B8D8C8D981305C016
:10026000E889F989808185FD24C0F62E0B8D10E088
:100270000F5F1F4F0F731127E02E8C8DE8120CC0FB
:100280000FB607FCFACFE889F989808185FFF5CFA1
:10029000CE010E940201F1CF8B8DFE01E80FF11D0E
:1002A000E35AFF4FF0820B8FEA89FB8980818062DD
:1002B00007C0EE89FF896083E889F98980818064BD
:1002C000808381E090E0DF91CF911F910F91FF90AB
:1002D000EF900895CF93DF93EC01888D8823C9F0C8
:1002E000EA89FB89808185FD05C0A889B9898C913F
:1002F00086FD0FC00FB607FCF5CF808185FFF2CFDA
:10030000A889B9898C9185FFEDCFCE010E940201A9
:10031000E7CFDF91CF91089580E090E0892B29F01D
:100320000E94F80081110C9400000895833081F040
:1003300028F4813099F08230A1F008958730A9F037
:100340008830B9F08430D1F4809180008F7D03C073
:10035000809180008F7780938000089584B58F7797
:1003600002C084B58F7D84BD08958091B0008F77E1
:1003700003C08091B0008F7D8093B0000895CF932B
:10038000DF93282F30E0F901E255FF4F8491F90106
:10039000E656FF4FD491F901EA57FF4FC491CC23A1
:1003A00091F081110E949601EC2FF0E0EE0FFF1FFB
:1003B000E458FF4FA591B491EC91ED2381E090E0DA
:1003C00021F480E002C080E090E0DF91CF910895B9
:1003D0001F93CF93DF93282F30E0F901E255FF4FB1
:1003E0008491F901E656FF4FD491F901EA57FF4F86
:1003F000C491CC23C9F0162F81110E949601EC2FD5
:10040000F0E0EE0FFF1FEE58FF4FA591B4918FB7AC
:10041000F894111105C09C91ED2FE095E92302C0DD
:10042000EC91ED2BEC938FBFDF91CF911F9108954D
:10043000CF93DF9390E0FC01E656FF4F2491FC013F
:10044000EA57FF4F8491882361F190E0880F991F4C
:10045000FC01E859FF4FC591D491FC01EE58FF4FC4
:10046000A591B491611109C09FB7F8948881209536
:1004700082238883EC912E230BC0623061F49FB7F6
:10048000F8943881822F809583238883EC912E2BDA
:100490002C939FBF06C08FB7F894E8812E2B28833A
:1004A0008FBFDF91CF9108953FB7F89480912F01CE
:1004B00090913001A0913101B091320126B5A89BF5
:1004C00005C02F3F19F00196A11DB11D3FBFBA2FE6
:1004D000A92F982F8827820F911DA11DB11DBC0146
:1004E000CD0142E0660F771F881F991F4A95D1F70B
:1004F0000895089582E00E94BF010097A9F0019736
:10050000C9F510922601109227011092280110922D
:1005100029010E9454026093220170932301809369
:1005200024019093250108950E94540260932601AE
:1005300070932701809328019093290180912601CF
:1005400090912701A0912801B091290140912201A9
:10055000509123016091240170912501841B950B1A
:10056000A60BB70B80933A0190933B01A0933C01FB
:10057000B0933D010895CF9380911C0190911D018E
:10058000019790931D0180931C01892B61F480EAEF
:100590009FE090931D0180931C0181E090E0909377
:1005A0001B0180931A0180911A0190911B01009701
:1005B000A9F0019759F461E08CE00E94E80182E023
:1005C00090E090931B0180931A0108C060E08CE0DA
:1005D0000E94E80110921B0110921A0180911E01E5
:1005E00090911F01A0912001B09121010197A109D3
:1005F000B10980931E0190931F01A0932001B09335
:100600002101181619061A061B060CF440C0809129
:100610003A0190913B01A0913C01B0913D01883A93
:100620009146A105B1056CF480913A0190913B018E
:10063000A0913C01B0913D01880F991FAA1FBB1FDB
:1006400004C088EA91E6A0E0B0E080931E01909398
:100650001F01A0932001B09321018DE00E94BF01F2
:10066000C1E0682F6C278DE00E94E801809138017D
:1006700090913901499734F48AE00E94BF01682FB4
:100680006C2701C060E08AE0CF910C94E801CF9123
:1006900008958F929F92AF92BF920F931F93CF9323
:1006A000DF93CDB7DEB7A1970FB6F894DEBF0FBECC
:1006B000CDBF19A2423008F44AE08E010F5D1F4FF2
:1006C000842E912CA12CB12CA50194010E94FB0534
:1006D000E62FB901CA0101501109EA3014F4E05DB6
:1006E00001C0E95CD801EC93232B242B252B61F767
:1006F0000115110571F0F80101900020E9F731971B
:10070000AF01401B510BB8018EE391E00E948C00B9
:1007100002C080E090E0A1960FB6F894DEBF0FBE55
:10072000CDBFDF91CF911F910F91BF90AF909F9060
:100730008F9008950E9442061F920F920FB60F925B
:1007400011242F933F934F935F936F937F938F93D6
:100750009F93AF93BF93EF93FF938EE391E00E943B
:100760000201FF91EF91BF91AF919F918F917F9186
:100770006F915F914F913F912F910F900FBE0F900E
:100780001F9018951F920F920FB60F9211242F935E
:100790008F939F93EF93FF93E0914E01F0914F0160
:1007A0008081E0915401F091550182FD12C0908149
:1007B000809157018F5F8F7320915801821751F0FC
:1007C000E0915701F0E0E25CFE4F958F8093570176
:1007D00001C08081FF91EF919F918F912F910F9098
:1007E0000FBE0F901F9018951F920F920FB60F9289
:1007F00011242F933F938F939F93AF93BF93809137
:100800002B0190912C01A0912D01B0912E013091DE
:100810002A0123E0230F2D3720F40196A11DB11DDD
:1008200005C026E8230F0296A11DB11D20932A01C1
:1008300080932B0190932C01A0932D01B0932E0156
:1008400080912F0190913001A0913101B09132013E
:100850000196A11DB11D80932F0190933001A093AB
:100860003101B0933201BF91AF919F918F913F9130
:100870002F910F900FBE0F901F9018951F920F92FF
:100880000FB60F9211242F933F934F935F936F9363
:100890007F938F939F93AF93BF93EF93FF93E091D9
:1008A0000201F09103010995FF91EF91BF91AF9182
:1008B0009F918F917F916F915F914F913F912F9178
:1008C0000F900FBE0F901F9018951F920F920FB6AA
:1008D0000F9211242F933F934F935F936F937F93C6
:1008E0008F939F93AF93BF93EF93FF93E09100019A
:1008F000F09101010995FF91EF91BF91AF919F9107
:100900008F917F916F915F914F913F912F910F90B8
:100910000FBE0F901F9018951F920F920FB60F9257
:1009200011242F933F934F935F936F937F938F93F4
:100930009F93AF93BF93EF93FF93E0913301F091B7
:1009400034010995FF91EF91BF91AF919F918F91E4
:100950007F916F915F914F913F912F910F900FBEBB
:100960000F901F901895789484B5826084BD84B5EB
:10097000816084BD85B5826085BD85B5816085BD9A
:1009800080916E00816080936E0010928100809152
:1009900081008260809381008091810081608093DA
:1009A0008100809180008160809380008091B100FF
:1009B00084608093B1008091B00081608093B0002A
:1009C00080917A00846080937A0080917A008260BE
:1009D00080937A0080917A00816080937A00809180
:1009E0007A00806880937A001092C10061E08CE008
:1009F0000E94180260E082E00E94180261E08DE02F
:100A00000E94180261E08AE00E94180260E08DE016
:100A10000E94E80180E1809381001092800081E0D3
:100A20008093370120E931E030933601209335017E
:100A3000309387002093860091E1909381002BEB07
:100A400032E0309334012093330180936F008AE7C2
:100A500092E09093010180930001809169008C7F66
:100A6000816080936900E89AE0914E01F0914F0116
:100A700082E08083E0914A01F0914B011082E09185
:100A80004C01F0914D018FEC808310925601E09162
:100A90005201F091530186E08083E0915001F09182
:100AA0005101808180618083E0915001F09151017A
:100AB000808188608083E0915001F09151018081B4
:100AC00080688083E0915001F091510180818F7D99
:100AD00080839AE3892E912CA12CB12C60913A014C
:100AE00070913B0180913C0190913D01A5019401E1
:100AF0000E941D0630933901209338016901330F9C
:100B0000EE08FF08F7FE14C0E0913E01F0913F01AE
:100B10000190F081E02D6DE28EE391E0099566276A
:100B20007727CB016C197D098E099F094AE003C024
:100B30004AE0C701B6010E94490342E050E066E185
:100B400071E08EE391E00E948C000E9454022B0120
:100B50003C0184E6C82ED12CE12CF12C0E945402D9
:100B6000DC01CB0184199509A609B709883E934099
:100B7000A105B10558F021E0C21AD108E108F10839
:100B800088EE480E83E0581E611C711CC114D1040C
:100B9000E104F10419F70E948C01A0CFEEE3F1E02B
:100BA0001382128288EE93E0A0E0B0E08483958304
:100BB000A683B78388E091E09183808385EC90E001
:100BC0009587848784EC90E09787868780EC90E017
:100BD000918B808B81EC90E0938B828B82EC90E008
:100BE000958B848B86EC90E0978B868B118E128E82
:100BF000138E148E0895A1E21A2EAA1BBB1BFD01B1
:100C00000DC0AA1FBB1FEE1FFF1FA217B307E407EB
:100C1000F50720F0A21BB30BE40BF50B661F771F43
:100C2000881F991F1A9469F7609570958095909523
:100C30009B01AC01BD01CF010895052E97FB1EF469
:100C400000940E94340657FD07D00E94FB0507FC64
:100C500003D04EF40C943406509540953095219570
:100C60003F4F4F4F5F4F08959095809570956195D8
:100C70007F4F8F4F9F4F0895EE0FFF1F0590F49108
:100C8000E02D099481E090E0F8940C944706F894E4
:020C9000FFCF94
:100C9200790279020000000023018C00BB006A0186
:0A0CA200EC00CA00DE000D0A00009D
:107E0000112484B714BE81FFF0D085E080938100F7
:107E100082E08093C00088E18093C10086E0809377
:107E2000C20080E18093C4008EE0C9D0259A86E02C
:107E300020E33CEF91E0309385002093840096BBD3
:107E4000B09BFECF1D9AA8958150A9F7CC24DD24C4
:107E500088248394B5E0AB2EA1E19A2EF3E0BF2EE7
:107E6000A2D0813461F49FD0082FAFD0023811F036
:107E7000013811F484E001C083E08DD089C08234E0
:107E800011F484E103C0853419F485E0A6D080C0E4
:107E9000853579F488D0E82EFF2485D0082F10E0AE
:107EA000102F00270E291F29000F111F8ED06801E7
:107EB0006FC0863521F484E090D080E0DECF843638
:107EC00009F040C070D06FD0082F6DD080E0C81688
:107ED00080E7D80618F4F601B7BEE895C0E0D1E017
:107EE00062D089930C17E1F7F0E0CF16F0E7DF06D8
:107EF00018F0F601B7BEE89568D007B600FCFDCFD4
:107F0000A601A0E0B1E02C9130E011968C91119780
:107F100090E0982F8827822B932B1296FA010C0160
:107F200087BEE89511244E5F5F4FF1E0A038BF0790
:107F300051F7F601A7BEE89507B600FCFDCF97BE46
:107F4000E89526C08437B1F42ED02DD0F82E2BD052
:107F50003CD0F601EF2C8F010F5F1F4F84911BD097
:107F6000EA94F801C1F70894C11CD11CFA94CF0C13
:107F7000D11C0EC0853739F428D08EE10CD085E9AC
:107F80000AD08FE07ACF813511F488E018D01DD067
:107F900080E101D065CF982F8091C00085FFFCCF94
:107FA0009093C60008958091C00087FFFCCF809118
:107FB000C00084FD01C0A8958091C6000895E0E648
:107FC000F0E098E1908380830895EDDF803219F02E
:107FD00088E0F5DFFFCF84E1DECF1F93182FE3DFCA
:107FE0001150E9F7F2DF1F91089580E0E8DFEE27F6
:047FF000FF270994CA
:027FFE00040479
:0400000300007E007B
:00000001FF
